{
  "contractName": "FundDistribution",
  "abi": [
    {
      "inputs": [
        {
          "internalType": "string",
          "name": "_name",
          "type": "string"
        },
        {
          "internalType": "uint256",
          "name": "_aadharNumber",
          "type": "uint256"
        },
        {
          "internalType": "uint256",
          "name": "_phoneNumber",
          "type": "uint256"
        },
        {
          "internalType": "string",
          "name": "_location",
          "type": "string"
        },
        {
          "internalType": "uint256",
          "name": "_pincode",
          "type": "uint256"
        },
        {
          "internalType": "uint256",
          "name": "_bankAccountNumber",
          "type": "uint256"
        }
      ],
      "name": "setBeneficiaryDetails",
      "outputs": [],
      "stateMutability": "nonpayable",
      "type": "function"
    },
    {
      "inputs": [
        {
          "internalType": "uint256",
          "name": "_aadharNumber",
          "type": "uint256"
        }
      ],
      "name": "getBeneficiaryDetails",
      "outputs": [
        {
          "internalType": "string",
          "name": "",
          "type": "string"
        },
        {
          "internalType": "uint256",
          "name": "",
          "type": "uint256"
        },
        {
          "internalType": "uint256",
          "name": "",
          "type": "uint256"
        },
        {
          "internalType": "string",
          "name": "",
          "type": "string"
        },
        {
          "internalType": "uint256",
          "name": "",
          "type": "uint256"
        },
        {
          "internalType": "uint256",
          "name": "",
          "type": "uint256"
        },
        {
          "internalType": "uint256",
          "name": "",
          "type": "uint256"
        }
      ],
      "stateMutability": "view",
      "type": "function",
      "constant": true
    },
    {
      "inputs": [],
      "name": "getAllAadharNumbers",
      "outputs": [
        {
          "internalType": "uint256[]",
          "name": "",
          "type": "uint256[]"
        }
      ],
      "stateMutability": "view",
      "type": "function",
      "constant": true
    },
    {
      "inputs": [],
      "name": "getCountOfBeneficiaries",
      "outputs": [
        {
          "internalType": "uint256",
          "name": "",
          "type": "uint256"
        }
      ],
      "stateMutability": "view",
      "type": "function",
      "constant": true
    },
    {
      "inputs": [
        {
          "internalType": "string",
          "name": "_stateName",
          "type": "string"
        },
        {
          "internalType": "string",
          "name": "_cause",
          "type": "string"
        },
        {
          "internalType": "uint256",
          "name": "_bankAccountNumberOfCentral",
          "type": "uint256"
        },
        {
          "internalType": "uint256",
          "name": "_bankAccountNumberOfState",
          "type": "uint256"
        },
        {
          "internalType": "uint256",
          "name": "_ifscNumberOfStateBankAccount",
          "type": "uint256"
        },
        {
          "internalType": "uint256",
          "name": "_transferingAmountOfCentral",
          "type": "uint256"
        },
        {
          "internalType": "uint256",
          "name": "_centralsAccountNumberPin",
          "type": "uint256"
        }
      ],
      "name": "setFundTransferingDetailsOfCentral",
      "outputs": [],
      "stateMutability": "nonpayable",
      "type": "function"
    },
    {
      "inputs": [
        {
          "internalType": "string",
          "name": "_stateName",
          "type": "string"
        }
      ],
      "name": "getTransferredFundDetailsOfCentral",
      "outputs": [
        {
          "internalType": "string",
          "name": "",
          "type": "string"
        },
        {
          "internalType": "string",
          "name": "",
          "type": "string"
        },
        {
          "internalType": "uint256",
          "name": "",
          "type": "uint256"
        },
        {
          "internalType": "uint256",
          "name": "",
          "type": "uint256"
        },
        {
          "internalType": "uint256",
          "name": "",
          "type": "uint256"
        },
        {
          "internalType": "uint256",
          "name": "",
          "type": "uint256"
        }
      ],
      "stateMutability": "view",
      "type": "function",
      "constant": true
    },
    {
      "inputs": [],
      "name": "getAllStatesList",
      "outputs": [
        {
          "internalType": "string[]",
          "name": "",
          "type": "string[]"
        }
      ],
      "stateMutability": "view",
      "type": "function",
      "constant": true
    },
    {
      "inputs": [
        {
          "internalType": "string",
          "name": "_stateName",
          "type": "string"
        },
        {
          "internalType": "string",
          "name": "_cause",
          "type": "string"
        },
        {
          "internalType": "uint256",
          "name": "_bankAccountNumberOfState",
          "type": "uint256"
        },
        {
          "internalType": "uint256",
          "name": "_ifscNumberOfStateBankAccount",
          "type": "uint256"
        },
        {
          "internalType": "uint256",
          "name": "_transferingAmountOfState",
          "type": "uint256"
        },
        {
          "internalType": "uint256",
          "name": "_statesAccountNumberPin",
          "type": "uint256"
        }
      ],
      "name": "setFundTransferingDetailsOfState",
      "outputs": [],
      "stateMutability": "nonpayable",
      "type": "function"
    },
    {
      "inputs": [
        {
          "internalType": "string",
          "name": "_stateName",
          "type": "string"
        }
      ],
      "name": "getTransferredFundDetailsOfState",
      "outputs": [
        {
          "internalType": "string",
          "name": "",
          "type": "string"
        },
        {
          "internalType": "string",
          "name": "",
          "type": "string"
        },
        {
          "internalType": "uint256",
          "name": "",
          "type": "uint256"
        },
        {
          "internalType": "uint256",
          "name": "",
          "type": "uint256"
        },
        {
          "internalType": "uint256",
          "name": "",
          "type": "uint256"
        },
        {
          "internalType": "uint256",
          "name": "",
          "type": "uint256"
        }
      ],
      "stateMutability": "view",
      "type": "function",
      "constant": true
    },
    {
      "inputs": [
        {
          "internalType": "string",
          "name": "_stateName",
          "type": "string"
        },
        {
          "internalType": "uint256",
          "name": "_pincode",
          "type": "uint256"
        }
      ],
      "name": "setDistributionOfFund",
      "outputs": [],
      "stateMutability": "nonpayable",
      "type": "function"
    }
  ],
  "bytecode": "0x608060405234801561001057600080fd5b50611a0a806100206000396000f3fe608060405234801561001057600080fd5b506004361061009e5760003560e01c8063adcdba2e11610066578063adcdba2e1461014c578063ce3a2b821461016a578063e532d084146101a0578063e79e25b6146101bc578063ed31c878146101d85761009e565b8063086ba321146100a35780637d842c46146100bf578063852862be146100f45780639ea8215d14610112578063a44966e51461012e575b600080fd5b6100bd60048036038101906100b891906110ad565b61020d565b005b6100d960048036038101906100d49190611109565b610360565b6040516100eb969594939291906111e9565b60405180910390f35b6100fc610560565b6040516101099190611316565b60405180910390f35b61012c60048036038101906101279190611338565b6105b8565b005b61013661071d565b60405161014391906113fd565b60405180910390f35b61015461072a565b6040516101619190611524565b60405180910390f35b610184600480360381019061017f9190611546565b610803565b6040516101979796959493929190611573565b60405180910390f35b6101ba60048036038101906101b591906115f0565b6109df565b005b6101d660048036038101906101d191906116ca565b610b4e565b005b6101f260048036038101906101ed9190611109565b610c7a565b604051610204969594939291906111e9565b60405180910390f35b600080600083815260200190815260200160002080549050905060008160058560405161023a91906117cb565b9081526020016040518091039020600401546102569190611840565b905060058460405161026891906117cb565b90815260200160405180910390206006015460058560405161028a91906117cb565b9081526020016040518091039020600401541161035a5760005b8281101561035857600080600086815260200190815260200160002082815481106102d2576102d1611871565b5b906000526020600020015490508260016000838152602001908152602001600020600701600082825461030591906118a0565b925050819055508260058760405161031d91906117cb565b9081526020016040518091039020600601600082825461033d91906118f6565b925050819055505080806103509061192a565b9150506102a4565b505b50505050565b60608060008060008060038760405161037991906117cb565b908152602001604051809103902060000160038860405161039a91906117cb565b90815260200160405180910390206001016003896040516103bb91906117cb565b90815260200160405180910390206002015460038a6040516103dd91906117cb565b90815260200160405180910390206003015460038b6040516103ff91906117cb565b90815260200160405180910390206004015460038c60405161042191906117cb565b90815260200160405180910390206005015485805461043f906119a2565b80601f016020809104026020016040519081016040528092919081815260200182805461046b906119a2565b80156104b85780601f1061048d576101008083540402835291602001916104b8565b820191906000526020600020905b81548152906001019060200180831161049b57829003601f168201915b505050505095508480546104cb906119a2565b80601f01602080910402602001604051908101604052809291908181526020018280546104f7906119a2565b80156105445780601f1061051957610100808354040283529160200191610544565b820191906000526020600020905b81548152906001019060200180831161052757829003601f168201915b5050505050945095509550955095509550955091939550919395565b606060028054806020026020016040519081016040528092919081815260200182805480156105ae57602002820191906000526020600020905b81548152602001906001019080831161059a575b5050505050905090565b856005876040516105c991906117cb565b908152602001604051809103902060000190805190602001906105ed929190610e7a565b50846005876040516105ff91906117cb565b90815260200160405180910390206001019080519060200190610623929190610e7a565b508360058760405161063591906117cb565b9081526020016040518091039020600201819055508260058760405161065b91906117cb565b9081526020016040518091039020600301819055508160058760405161068191906117cb565b908152602001604051809103902060040181905550806005876040516106a791906117cb565b9081526020016040518091039020600501819055506003866040516106cc91906117cb565b9081526020016040518091039020600501546005876040516106ee91906117cb565b9081526020016040518091039020600601600082825461070e91906118a0565b92505081905550505050505050565b6000600280549050905090565b60606004805480602002602001604051908101604052809291908181526020016000905b828210156107fa57838290600052602060002001805461076d906119a2565b80601f0160208091040260200160405190810160405280929190818152602001828054610799906119a2565b80156107e65780601f106107bb576101008083540402835291602001916107e6565b820191906000526020600020905b8154815290600101906020018083116107c957829003601f168201915b50505050508152602001906001019061074e565b50505050905090565b60606000806060600080600060016000898152602001908152602001600020600001600160008a815260200190815260200160002060010154600160008b815260200190815260200160002060020154600160008c8152602001908152602001600020600301600160008d815260200190815260200160002060040154600160008e815260200190815260200160002060050154600160008f8152602001908152602001600020600701548680546108ba906119a2565b80601f01602080910402602001604051908101604052809291908181526020018280546108e6906119a2565b80156109335780601f1061090857610100808354040283529160200191610933565b820191906000526020600020905b81548152906001019060200180831161091657829003601f168201915b50505050509650838054610946906119a2565b80601f0160208091040260200160405190810160405280929190818152602001828054610972906119a2565b80156109bf5780601f10610994576101008083540402835291602001916109bf565b820191906000526020600020905b8154815290600101906020018083116109a257829003601f168201915b505050505093509650965096509650965096509650919395979092949650565b866003886040516109f091906117cb565b90815260200160405180910390206000019080519060200190610a14929190610e7a565b5085600388604051610a2691906117cb565b90815260200160405180910390206001019080519060200190610a4a929190610e7a565b5084600388604051610a5c91906117cb565b90815260200160405180910390206002018190555083600388604051610a8291906117cb565b90815260200160405180910390206003018190555082600388604051610aa891906117cb565b90815260200160405180910390206004018190555081600388604051610ace91906117cb565b90815260200160405180910390206005018190555080600388604051610af491906117cb565b908152602001604051809103902060060181905550600487908060018154018082558091505060019003906000526020600020016000909190919091509080519060200190610b44929190610e7a565b5050505050505050565b85600160008781526020019081526020016000206000019080519060200190610b78929190610e7a565b5084600160008781526020019081526020016000206001018190555083600160008781526020019081526020016000206002018190555082600160008781526020019081526020016000206003019080519060200190610bd9929190610e7a565b508160016000878152602001908152602001600020600401819055508060016000878152602001908152602001600020600501819055506002859080600181540180825580915050600190039060005260206000200160009091909190915055600080838152602001908152602001600020859080600181540180825580915050600190039060005260206000200160009091909190915055505050505050565b606080600080600080600587604051610c9391906117cb565b9081526020016040518091039020600001600588604051610cb491906117cb565b9081526020016040518091039020600101600589604051610cd591906117cb565b90815260200160405180910390206002015460058a604051610cf791906117cb565b90815260200160405180910390206003015460058b604051610d1991906117cb565b90815260200160405180910390206004015460058c604051610d3b91906117cb565b908152602001604051809103902060060154858054610d59906119a2565b80601f0160208091040260200160405190810160405280929190818152602001828054610d85906119a2565b8015610dd25780601f10610da757610100808354040283529160200191610dd2565b820191906000526020600020905b815481529060010190602001808311610db557829003601f168201915b50505050509550848054610de5906119a2565b80601f0160208091040260200160405190810160405280929190818152602001828054610e11906119a2565b8015610e5e5780601f10610e3357610100808354040283529160200191610e5e565b820191906000526020600020905b815481529060010190602001808311610e4157829003601f168201915b5050505050945095509550955095509550955091939550919395565b828054610e86906119a2565b90600052602060002090601f016020900481019282610ea85760008555610eef565b82601f10610ec157805160ff1916838001178555610eef565b82800160010185558215610eef579182015b82811115610eee578251825591602001919060010190610ed3565b5b509050610efc9190610f00565b5090565b5b80821115610f19576000816000905550600101610f01565b5090565b6000604051905090565b600080fd5b600080fd5b600080fd5b600080fd5b6000601f19601f8301169050919050565b7f4e487b7100000000000000000000000000000000000000000000000000000000600052604160045260246000fd5b610f8482610f3b565b810181811067ffffffffffffffff82111715610fa357610fa2610f4c565b5b80604052505050565b6000610fb6610f1d565b9050610fc28282610f7b565b919050565b600067ffffffffffffffff821115610fe257610fe1610f4c565b5b610feb82610f3b565b9050602081019050919050565b82818337600083830152505050565b600061101a61101584610fc7565b610fac565b90508281526020810184848401111561103657611035610f36565b5b611041848285610ff8565b509392505050565b600082601f83011261105e5761105d610f31565b5b813561106e848260208601611007565b91505092915050565b6000819050919050565b61108a81611077565b811461109557600080fd5b50565b6000813590506110a781611081565b92915050565b600080604083850312156110c4576110c3610f27565b5b600083013567ffffffffffffffff8111156110e2576110e1610f2c565b5b6110ee85828601611049565b92505060206110ff85828601611098565b9150509250929050565b60006020828403121561111f5761111e610f27565b5b600082013567ffffffffffffffff81111561113d5761113c610f2c565b5b61114984828501611049565b91505092915050565b600081519050919050565b600082825260208201905092915050565b60005b8381101561118c578082015181840152602081019050611171565b8381111561119b576000848401525b50505050565b60006111ac82611152565b6111b6818561115d565b93506111c681856020860161116e565b6111cf81610f3b565b840191505092915050565b6111e381611077565b82525050565b600060c082019050818103600083015261120381896111a1565b9050818103602083015261121781886111a1565b905061122660408301876111da565b61123360608301866111da565b61124060808301856111da565b61124d60a08301846111da565b979650505050505050565b600081519050919050565b600082825260208201905092915050565b6000819050602082019050919050565b61128d81611077565b82525050565b600061129f8383611284565b60208301905092915050565b6000602082019050919050565b60006112c382611258565b6112cd8185611263565b93506112d883611274565b8060005b838110156113095781516112f08882611293565b97506112fb836112ab565b9250506001810190506112dc565b5085935050505092915050565b6000602082019050818103600083015261133081846112b8565b905092915050565b60008060008060008060c0878903121561135557611354610f27565b5b600087013567ffffffffffffffff81111561137357611372610f2c565b5b61137f89828a01611049565b965050602087013567ffffffffffffffff8111156113a05761139f610f2c565b5b6113ac89828a01611049565b95505060406113bd89828a01611098565b94505060606113ce89828a01611098565b93505060806113df89828a01611098565b92505060a06113f089828a01611098565b9150509295509295509295565b600060208201905061141260008301846111da565b92915050565b600081519050919050565b600082825260208201905092915050565b6000819050602082019050919050565b600082825260208201905092915050565b600061146082611152565b61146a8185611444565b935061147a81856020860161116e565b61148381610f3b565b840191505092915050565b600061149a8383611455565b905092915050565b6000602082019050919050565b60006114ba82611418565b6114c48185611423565b9350836020820285016114d685611434565b8060005b8581101561151257848403895281516114f3858261148e565b94506114fe836114a2565b925060208a019950506001810190506114da565b50829750879550505050505092915050565b6000602082019050818103600083015261153e81846114af565b905092915050565b60006020828403121561155c5761155b610f27565b5b600061156a84828501611098565b91505092915050565b600060e082019050818103600083015261158d818a6111a1565b905061159c60208301896111da565b6115a960408301886111da565b81810360608301526115bb81876111a1565b90506115ca60808301866111da565b6115d760a08301856111da565b6115e460c08301846111da565b98975050505050505050565b600080600080600080600060e0888a03121561160f5761160e610f27565b5b600088013567ffffffffffffffff81111561162d5761162c610f2c565b5b6116398a828b01611049565b975050602088013567ffffffffffffffff81111561165a57611659610f2c565b5b6116668a828b01611049565b96505060406116778a828b01611098565b95505060606116888a828b01611098565b94505060806116998a828b01611098565b93505060a06116aa8a828b01611098565b92505060c06116bb8a828b01611098565b91505092959891949750929550565b60008060008060008060c087890312156116e7576116e6610f27565b5b600087013567ffffffffffffffff81111561170557611704610f2c565b5b61171189828a01611049565b965050602061172289828a01611098565b955050604061173389828a01611098565b945050606087013567ffffffffffffffff81111561175457611753610f2c565b5b61176089828a01611049565b935050608061177189828a01611098565b92505060a061178289828a01611098565b9150509295509295509295565b600081905092915050565b60006117a582611152565b6117af818561178f565b93506117bf81856020860161116e565b80840191505092915050565b60006117d7828461179a565b915081905092915050565b7f4e487b7100000000000000000000000000000000000000000000000000000000600052601260045260246000fd5b7f4e487b7100000000000000000000000000000000000000000000000000000000600052601160045260246000fd5b600061184b82611077565b915061185683611077565b925082611866576118656117e2565b5b828204905092915050565b7f4e487b7100000000000000000000000000000000000000000000000000000000600052603260045260246000fd5b60006118ab82611077565b91506118b683611077565b9250827fffffffffffffffffffffffffffffffffffffffffffffffffffffffffffffffff038211156118eb576118ea611811565b5b828201905092915050565b600061190182611077565b915061190c83611077565b92508282101561191f5761191e611811565b5b828203905092915050565b600061193582611077565b91507fffffffffffffffffffffffffffffffffffffffffffffffffffffffffffffffff82141561196857611967611811565b5b600182019050919050565b7f4e487b7100000000000000000000000000000000000000000000000000000000600052602260045260246000fd5b600060028204905060018216806119ba57607f821691505b602082108114156119ce576119cd611973565b5b5091905056fea26469706673582212205ec08ef3abb0f15815d31e1a4d450d757f0adaa7e14333673e941565d497106064736f6c634300080a0033",
  "immutableReferences": {},
  "source": "// SPDX-License-Identifier: MIT\n\n//BENEFICIARY.SOL\n\n\npragma solidity ^0.8.10;\n\ncontract FundDistribution\n{\n   struct beneficiaryDetails\n   {\n       string name;\n       uint aadharNumber;\n       uint phoneNumber;\n       string location;\n       uint pincode;\n       uint bankAccountNumber;\n       uint ifscNumber;\n       uint accountBalance;\n   } \n    \n    mapping (uint => uint[])listOfAadharInAPincodeMap;\n    \n    mapping (uint => beneficiaryDetails)beneficiaryMap;\n\n    uint256[] allBeneficiariesAadharNumber;\n\n\n    function setBeneficiaryDetails(string memory _name,\n                                    uint _aadharNumber,\n                                    uint  _phoneNumber,\n                                    string memory _location,\n                                    uint _pincode,\n                                    uint _bankAccountNumber\n                                    )\n    public\n    {\n        beneficiaryMap[_aadharNumber].name = _name;\n        beneficiaryMap[_aadharNumber].aadharNumber = _aadharNumber;\n        beneficiaryMap[_aadharNumber].phoneNumber = _phoneNumber;\n        beneficiaryMap[_aadharNumber].location = _location;\n        beneficiaryMap[_aadharNumber].pincode = _pincode;\n        beneficiaryMap[_aadharNumber].bankAccountNumber = _bankAccountNumber;\n\n        allBeneficiariesAadharNumber.push(_aadharNumber);  \n\n        listOfAadharInAPincodeMap[_pincode].push(_aadharNumber);     \n    }\n\n\n    function getBeneficiaryDetails(uint _aadharNumber)\n\n    view public returns (string memory, uint, uint, string memory, uint,  uint, uint)   \n    {\n        return\n        (\n            beneficiaryMap[_aadharNumber].name,\n            beneficiaryMap[_aadharNumber].aadharNumber,\n            beneficiaryMap[_aadharNumber].phoneNumber,\n            beneficiaryMap[_aadharNumber].location,\n            beneficiaryMap[_aadharNumber].pincode,\n            beneficiaryMap[_aadharNumber].bankAccountNumber,\n            beneficiaryMap[_aadharNumber].accountBalance\n        );\n    }\n\n\n    function getAllAadharNumbers() view public returns(uint[] memory)\n    {\n        return allBeneficiariesAadharNumber;\n    }\n\n\n    function getCountOfBeneficiaries() view public returns (uint)\n    {\n        return allBeneficiariesAadharNumber.length; \n    }\n\n\n\n\n//CENTRAL GOVERNMENT.SOL \n\n\n    struct centralsFundTransferingDetails\n    {\n        string stateName;\n        string cause;\n        uint bankAccountNumberOfCentral;\n        uint bankAccountNumberOfState;\n        uint ifscNumberOfStateBankAccount;\n        uint transferingAmountOfCentral;\n        uint centralsAccountNumberPin;\n    }\n\n    mapping (string  => centralsFundTransferingDetails)centralsFundTransferingDetailsMap;\n\n    string[] allStates;\n\n\n    //set function\n    function setFundTransferingDetailsOfCentral(string memory _stateName, string memory _cause,\n                        uint _bankAccountNumberOfCentral, uint _bankAccountNumberOfState,\n                        uint _ifscNumberOfStateBankAccount, uint _transferingAmountOfCentral,uint _centralsAccountNumberPin)\n    public\n    {\n\n        centralsFundTransferingDetailsMap[_stateName].stateName = _stateName;\n        centralsFundTransferingDetailsMap[_stateName].cause = _cause;\n        centralsFundTransferingDetailsMap[_stateName].bankAccountNumberOfCentral = _bankAccountNumberOfCentral;\n        centralsFundTransferingDetailsMap[_stateName].bankAccountNumberOfState = _bankAccountNumberOfState;\n        centralsFundTransferingDetailsMap[_stateName].ifscNumberOfStateBankAccount = _ifscNumberOfStateBankAccount;\n        centralsFundTransferingDetailsMap[_stateName].transferingAmountOfCentral = _transferingAmountOfCentral;\n        centralsFundTransferingDetailsMap[_stateName].centralsAccountNumberPin = _centralsAccountNumberPin;\n\n        allStates.push(_stateName);\n\n    }\n    \n\n    //get function\n    function getTransferredFundDetailsOfCentral(string memory _stateName) view public \n    returns (string memory, string memory, uint, uint, uint,uint) \n    {\n        return\n        (\n            centralsFundTransferingDetailsMap[_stateName].stateName,\n            centralsFundTransferingDetailsMap[_stateName].cause,\n            centralsFundTransferingDetailsMap[_stateName].bankAccountNumberOfCentral,\n            centralsFundTransferingDetailsMap[_stateName].bankAccountNumberOfState,\n            centralsFundTransferingDetailsMap[_stateName].ifscNumberOfStateBankAccount,\n            centralsFundTransferingDetailsMap[_stateName].transferingAmountOfCentral\n        );\n    }\n\n    //get function\n    function getAllStatesList() view public returns(string[] memory)\n    {\n        return allStates;\n    }\n\n\n\n\n//STATE GOVERNMENT.SOL\n\n    struct statesFundTransferingDetails\n    {\n        string stateName;\n        string cause;\n        uint bankAccountNumberOfState;\n        uint ifscNumberOfStateBankAccount;\n        uint transferingAmountOfState;\n        uint statesAccountNumberPin;\n        uint accountBalanceOfState;\n    }\n\n    mapping (string  => statesFundTransferingDetails)statesFundTransferingDetailsMap;\n\n\n    //set function\n    function setFundTransferingDetailsOfState(string memory _stateName, string memory _cause,\n                        uint _bankAccountNumberOfState,uint _ifscNumberOfStateBankAccount,\n                        uint _transferingAmountOfState,uint _statesAccountNumberPin)\n    public\n    {\n        statesFundTransferingDetailsMap[_stateName].stateName = _stateName;\n        statesFundTransferingDetailsMap[_stateName].cause = _cause;\n        statesFundTransferingDetailsMap[_stateName].bankAccountNumberOfState = _bankAccountNumberOfState;\n        statesFundTransferingDetailsMap[_stateName].ifscNumberOfStateBankAccount = _ifscNumberOfStateBankAccount;\n        statesFundTransferingDetailsMap[_stateName].transferingAmountOfState = _transferingAmountOfState;\n        statesFundTransferingDetailsMap[_stateName].statesAccountNumberPin = _statesAccountNumberPin;\n        statesFundTransferingDetailsMap[_stateName].accountBalanceOfState += centralsFundTransferingDetailsMap[_stateName].transferingAmountOfCentral;\n    }\n\n    //get function\n    function getTransferredFundDetailsOfState(string memory _stateName)view public\n    returns(string memory ,string memory ,uint ,uint ,uint,uint)\n    {\n        return (\n                    statesFundTransferingDetailsMap[_stateName].stateName,\n                    statesFundTransferingDetailsMap[_stateName].cause,\n                    statesFundTransferingDetailsMap[_stateName].bankAccountNumberOfState,\n                    statesFundTransferingDetailsMap[_stateName].ifscNumberOfStateBankAccount,\n                    statesFundTransferingDetailsMap[_stateName].transferingAmountOfState,\n                    statesFundTransferingDetailsMap[_stateName].accountBalanceOfState\n                    \n                );\n    }\n\n\n    function setDistributionOfFund(string memory _stateName ,uint _pincode)\n    public\n    {\n        \n        uint countOfAllAadharInPincode = listOfAadharInAPincodeMap[_pincode].length;\n\n        uint beneficiaryAmount = statesFundTransferingDetailsMap[_stateName].transferingAmountOfState / countOfAllAadharInPincode;\n        \n        if(statesFundTransferingDetailsMap[_stateName].transferingAmountOfState <= statesFundTransferingDetailsMap[_stateName].accountBalanceOfState)\n        {\n\n            for(uint i = 0; i<countOfAllAadharInPincode; i++)\n            {\n\n                uint _currentAadharNumberInLoop = listOfAadharInAPincodeMap[_pincode][i];\n\n                beneficiaryMap[_currentAadharNumberInLoop].accountBalance += beneficiaryAmount;\n\n                statesFundTransferingDetailsMap[_stateName].accountBalanceOfState -= beneficiaryAmount;\n            \n            }\n\n        }\n\n    }\n\n}\n\n\n\n\n",
  "sourcePath": "/home/mantesh/Desktop/mini-project/grft/contracts/FundDistribution.sol",
  "compiler": {
    "name": "solc",
    "version": "0.8.10+commit.fc410830.Emscripten.clang"
  },
  "schemaVersion": "3.4.4",
  "updatedAt": "2022-01-31T22:46:40.128Z",
  "networkType": "ethereum",
  "devdoc": {
    "kind": "dev",
    "methods": {},
    "version": 1
  },
  "userdoc": {
    "kind": "user",
    "methods": {},
    "version": 1
  }
}